:020000040800F2
:10180000383C0020011900081B5900087D2D0008F4
:101810009558000871210008C36D00080000000001
:101820000000000000000000000000001319000884
:101830007127000800000000171900080969000856
:101840001B1900081B1900081B1900081B190008A8
:101850001B1900081B1900081B1900081B19000898
:101860001B1900081B1900081B1900081B19000888
:101870001B1900081B1900081B1900081B19000878
:101880001B1900081B1900081B1900081B19000868
:101890001B1900081B1900081B1900081B19000858
:1018A0001B1900081B1900081B1900081B19000848
:1018B000F56900081B1900081B1900081B1900080E
:1018C0001B1900081B1900081B1900081B19000828
:1018D0001B1900081B1900081B190008A16B000840
:1018E0001B1900081B1900081B190008DFF80CD091
:1018F00000F02AF80048004799910008383C002081
:101900000648804706480047FEE7FEE7FEE7FEE799
:10191000FEE7FEE7FEE7FEE7FEE7FEE79569000863
:10192000ED18000840EA01039B0703D009E008C94D
:10193000121F08C0042AFAD203E011F8013B00F894
:10194000013B521EF9D27047064C074D06E0E06895
:1019500040F0010394E8070098471034AC42F6D3F6
:10196000FFF7C8FF389400085894000870B501EBE1
:10197000020410F8015B15F0070301D110F8013BD8
:101980002A1106D110F8012B03E010F8016B01F8C1
:10199000016B5B1EF9D12B0705D40023521E0FD417
:1019A00001F8013BFAE710F8013B02F10202A1EB5A
:1019B000030303E013F8015B01F8015B521EF9D544
:1019C000A142D6D3002070BD2DE9F84F002500BFFD
:1019D00000BF0098009000BF4648C08B40F602024E
:1019E00040EA02010F2000F0C3F9012000F010FAD4
:1019F00041F2883500BF0F2000F0D4F804460120E2
:101A000000F006FA681E85B205B903E040F6020050
:101A10000442F0D100BF0E2000F0C4F8044604F0E8
:101A20000F094FEAD42AC4F300160EB100F0E4FF08
:101A30000A2000F0A3F8044604F00F000090C4F35D
:101A40000018B8F1000F01D000F0D6FF4FF4984114
:101A50000C2000F08DF92748C08B40F480510F20F6
:101A600000F086F941F2883500BF0F2000F09AF8A7
:101A70000446012000F0CCF9681E85B205B902E0E9
:101A800014F4805FF1D100BF1A48018B0C2000F0E4
:101A90006FF918484188012000F06AF915488188DB
:101AA000022000F065F91348C08B40F004010F20BC
:101AB00000F05EF941F2883500BF0F2000F072F8A7
:101AC0000446012000F0A4F9681E85B205B902E0C1
:101AD00014F0040FF1D100BF0E2000F063F80446AB
:101AE000C4F3421BC4F300270FB100F085FFBDE82B
:101AF000F88F0000CE93000870B5002407E01C4862
:101B000030F81410204600F033F9601CC4B2082CE1
:101B1000F5DB0A2407E0164830F81410204600F0E0
:101B200027F9601CC4B2102CF5DB002407E0114833
:101B300030F81410204600F0F3F8601CC4B2102CEA
:101B4000F5DB002407E00C4830F81410204600F0C4
:101B5000FBF8601CC4B2052CF5DB002000F022F875
:101B6000054603480088A84201D000F045FF70BD3B
:101B7000CE930008EE9300080E94000870B504465A
:101B800025460748C08940EA053085B22946072026
:101B900000F0EEF8082000F005F80546284670BD74
:101BA000CE93000870B5044600261021284801F0A5
:101BB00056F844F0800400251BE014F0800F04D098
:101BC0008021234801F04DF803E08021204801F0F6
:101BD00046F803F09BFE20211D4801F042F803F077
:101BE00095FE20211A4801F03AF86006040E681CA0
:101BF000C5B2082DE1DB03F089FE012004F030FEC0
:101C0000002519E08021124801F020F820B10120C0
:101C100000EB460086B203E04FF6FF7000EA46068E
:101C200020210B4801F01DF803F070FE2021084828
:101C300001F015F8681CC5B2102DE3DB1021044833
:101C400001F00FF8002004F00BFE304670BD0000DC
:101C50000008014070B506460C46602004F018FEEE
:101C600010210B4800F0FBFF402000F0ABFA2046AB
:101C700000F0A8FA002504E0705D00F0A3FA681CEB
:101C8000C5B2A542F8DB1021014800F0EAFF70BDA3
:101C9000000801402DE9F04110211F4800F0DFFF4E
:101CA000202000F08FFA002405E01C49085D00F0B8
:101CB00089FA601CC4B2042CF7DB1021164800F02E
:101CC000D0FF1021144800F0CAFFA02000F07AFADB
:101CD00000F050FA054600F04DFA064600F04AFAC8
:101CE000074600F047FA804610210B4800F0B9FF84
:101CF0000A480078A8420BD108484078B04207D182
:101D000006488078B84203D10448C078404501D0E5
:101D100000F072FEBDE8F08100080140C4930008A5
:101D200070B504460E4625460648C08940EA05308F
:101D300085B22946072000F01BF83146082000F044
:101D400017F870BDCE93000870B504460E462546C0
:101D50000648C08940EAC51085B22946072000F030
:101D600007F83146092000F003F870BDCE93000853
:101D700070B504460E461021244800F070FF00BFE5
:101D8000002519E014F0800F04D080211F4800F0D6
:101D900068FF03E080211D4800F061FF20211B48FF
:101DA00000F05FFF03F0B2FD2021184800F057FF5C
:101DB0006006040E681CC5B2082DE3DB03F0A6FD27
:101DC00000251BE016F4004F04D080210F4800F0DE
:101DD00048FF03E080210D4800F041FF20210B481F
:101DE00000F03FFF03F092FD2021084800F037FF8C
:101DF0004FF6FF7000EA4606681CC5B2102DE1DB05
:101E00001021024800F02DFF70BD000000080140C5
:101E100000B50246134603E0581E83B203F076FD78
:101E2000002BF9DC00BD00001048C088002804DD4C
:101E30000E48C088401E0D49C8800C488078C828CC
:101E400004DA0A488078401C084988700748407ABC
:101E5000FA2804DA0548407A401C044948720448CC
:101E6000C079401C0249C8717047000072200020F0
:101E70008003002010B503F09BF810BDF8B59A4818
:101E80000078401C9849087006F0AEFE07F0D0F8C4
:101E90009649087802F062F89548807901281CD1AB
:101EA0009448407880B993480078800091498880B0
:101EB00008460078F52803DA08460078401C0870C8
:101EC00001208C49487008E08A488088002804DD99
:101ED00088488088401E8749888085488079012805
:101EE0000AD18448808838B98248807820B901F0C6
:101EF00005FA00207F4948707F48407848BB7C48FD
:101F00008079012825DD01221146002002F032FDF2
:101F100000241CE02046E11704EB5171C1F3C70611
:101F2000E11704EB5171C910A4EBC101CFB27348A2
:101F3000805D0121B940084207D0611CC8B24FF44E
:101F40007A730122042100F029FD601CC4B2082C20
:101F5000E0DB654800780A2873DB002062490870DE
:101F60006348C079401C6249C87165480078401CCC
:101F70006349087060488078002804DD5E488078F6
:101F8000401E5D4988705A48807B10F0080F01D1CF
:101F900003F0BEFA5548C089002804DD5348C089C3
:101FA000401E5249C8815148C08930B94F484078D5
:101FB000012802D100204D49487006F065FB054616
:101FC000F5B3012D0FD14A48808800F47040B0F578
:101FD000405F02D102F0C4FB37E004F0CDF90120EC
:101FE0004349887131E0032D2FD14148808800F4A6
:101FF0007040B0F5304F05D103F074FBFF2003F0C3
:10200000CFFA09E03A48808800F47040B0F5405FAC
:1020100002D1FF2003F0FEFA00203549C872087390
:102020000220887101200823192211460090002007
:1020300003F0F2FB0220082319221146009001E070
:1020400003E050E0012003F0E7FB01F0E5FA03F0C4
:1020500023FC2B4800780A2845DB0020284908701B
:1020600028480078401C2749087008460078022854
:1020700001DB002008702048007B002804DD1E489A
:10208000007B401E1C4908731948407A642804DA12
:102090001748407A401C164948721548007B0028B2
:1020A00004DD1348007B401E114908731048C07AB4
:1020B000002804DD0E48C07A401E0D49C8720C4845
:1020C000807903280FD10A48007B60B90848C07A9C
:1020D00048B902200649887101231922114600904F
:1020E000184603F099FBF8BD010000207C20002079
:1020F000800300200400002046040020191E002058
:10210000020000200300002010B505F0B5F810BD56
:1021100010B507480078401C05490870084600784B
:10212000052803DB0020087005F01AFE10BD000032
:102130000000002010B50246002008E00B4B1B5C9D
:1021400002F8013B0024094B1C54431CD8B2074B36
:102150005B1E1B788342F1DC044B5B1E1B780B700B
:102160000023024C641E237010BD000009370020BC
:1021700000BFFEE770B50024012004F071FB0025CC
:1021800017E080210E4800F061FD20B1012000EB36
:102190004400C4B201E06006040E2021084800F0AB
:1021A00060FD03F0B3FB2021054800F058FD681CDA
:1021B000C5B2082DE5DB002004F052FB204670BDBF
:1021C0000008014070B5044600251BE014F0800FA4
:1021D00004D080210D4800F044FD03E080210B482D
:1021E00000F03DFD03F092FB2021084800F039FD8E
:1021F00003F08CFB2021054800F031FD6006040E41
:10220000681CC5B2082DE1DB70BD0000000801406C
:1022100010B50D48C078642804DA0B48C078401C1B
:102220000949C8700848C078142806D10749881C95
:10223000FFF780FF012004490872AFF22B026421EE
:10224000012006F03FFD10BD722000203E1F00203F
:1022500030B503460A4600201E4C2478944211D122
:102260000120002109E05D5C1A4CA41C645CA542BD
:1022700001D0002005E04C1CE1B2164C24788C42C1
:10228000F1DC26E0134C2478944222DD0120002169
:1022900009E05D5C0F4CA41C645CA54201D00020E9
:1022A00003E04C1CE1B29142F3DB00BF012810D1E6
:1022B000002106E08D18074CA41C655D65544C1C7C
:1022C000E1B2C2F11E048C42F4DC0424014D2C70F6
:1022D000022030BD3E1F002078B5024614788DF8EC
:1022E000004054788DF8014094788DF80240D478FD
:1022F0008DF80340FF2300202BE09DF80050C0EB39
:10230000C006164C04EB4604E478A5421FD19DF8A4
:102310000150C0EBC006114C04EB46042479A542E1
:1023200015D19DF80250C0EBC0060C4C04EB4604DE
:102330006479A5420BD19DF80350C0EBC006074C51
:1023400004EB4604A479A54201D1034603E0441CF2
:10235000E0B20828D1DB00BF0B7078BDD6030020A7
:1023600018B503788DF8003043788DF80130837804
:102370008DF80230C3788DF80330FF229DF80030CD
:102380000C4CA47BA34212D19DF80140094BDB7B8E
:102390009C420CD19DF80240064B1B7C9C4206D10E
:1023A0009DF80340034B5B7C9C4200D100220A70E5
:1023B00018BD00004604002011B920F001004BE0D8
:1023C000012902D120F0020046E0022902D120F0CA
:1023D000040041E0032902D120F008003CE0042978
:1023E00002D120F0100037E0052902D120F02000B2
:1023F00032E0062902D120F040002DE0072902D169
:1024000020F0800028E0082902D120F4807023E029
:10241000092902D120F400701EE00A2902D120F41B
:10242000806019E00B2902D120F4006014E00C292F
:1024300002D120F480500FE00D2902D120F4005089
:102440000AE00E2902D120F4804005E00F2902D1D4
:1024500020F4004000E000BF7047000070B5034664
:10246000C1EBC105334800EB450044895D7818781D
:1024700005EB0022B2F5504F01D3FC2070BDC4F330
:102480000D04C2F30D02A2420BD9C1EBC1062948CB
:1024900000EB460042810025264828384554FB20A1
:1024A000ECE74CF69B7084420DD9642A0BD2C1EB49
:1024B000C106204800EB4600428100251D4828380F
:1024C0004554FB20DAE71C48008A101A012820D165
:1024D000194D2A8217482838405C002807DD154826
:1024E0002838405C401EC5B212482838455411486F
:1024F0002838405C58B9C1EBC1060E4800EB4600D5
:10250000428100250B4828384554FB20B6E7FC20C3
:10251000B4E7094D2A8207482838405C032807DAC7
:1025200004482838405C401CC5B20248283845544D
:10253000FC20A3E7D603002080030020F0B5054669
:102540000E461446C4EBC401044800EB4100077B6F
:102550003A463146284602F0F9FFF0BDD603002086
:102560002DE9F84306460F4690469946002404E0BC
:10257000305D0DF80400601CC4B2042CF8DB9DF83B
:10258000030000F0F0008DF803000421684600F01D
:10259000BBFB0546B9F1000F05D12A464146384636
:1025A00002F0D4FF04E02A464146384602F0E1FF3B
:1025B000BDE8F8832DE9F0438DB0074688461646FE
:1025C000002506F041FE18B100200DB0BDE8F083F3
:1025D000CC2006F0E7FEA5222846691CCDB20DF8F6
:1025E000002017B148F0E00000E0404629466A1C90
:1025F000D5B20DF80100002405E01DF8040006F036
:10260000D1FE601CC4B2AC42F7DB06F069FE29467D
:102610006A1CD5B20DF8010006F062FE29466A1C5C
:10262000D5B20DF80100002027490860002405E01C
:102630001DF8040006F0D8FB601CC4B2AC42F7DB06
:10264000214800684BF20101884201D0FF20BCE71D
:1026500041F2707000F08DF806F042FE81460024D1
:10266000002509E006F03CFE3055305D0DF8050010
:10267000601CC4B2681CC5B2202CF3DB06F030FE2F
:1026800029466A1CD5B20DF8010006F029FE29463C
:102690006A1CD5B20DF8010000200B490860002427
:1026A00005E01DF8040006F09FFB601CC4B2AC42BC
:1026B000F7DB054800684BF20101884201D0FF209A
:1026C00083E7484681E700004803002030B5024612
:1026D0000B46002014E080210FE010F0800F04D0A2
:1026E0004406200E80F0310001E04406200E1478EC
:1026F0000C4201D080F0310049100029EDD1521C6C
:102700001C00A3F10105EBB2E5D130BD10B545F2D7
:1027100002510E20FFF704FB0F48C08C40F480618B
:102720001320FFF711FB0C48C0894CF2FF4240EA2E
:1027300002010720FFF708FB0748C08B40F4C441A3
:102740000F20FFF701FB0448408940F48061052019
:10275000FFF7FAFA10BD00000E94000870B50446A9
:102760000D4629466068FFF727FE6060012070BDB6
:10277000704706E0002101E04A1CD1B20829FBDBCA
:10278000401E0028F6D17047FEB5002003F0A8FBDC
:1027900007465B2F1BD00121FF2005F0C9FC022159
:1027A000FF2005F0C5FC0721B12005F0C1FC062182
:1027B000402005F0BDFCFF2002F0F2FE02F092FF87
:1027C000FF2002F027FF00215B2005F0B1FC012073
:1027D00003F086FB66498870022003F081FB6449A0
:1027E000C870032003F07CFB614948730020087027
:1027F000072003F075FB06464FF6FF7000EA062639
:10280000062003F06DFB304459498880594803F095
:1028100087FD06465648808800F47040B0F5304F7A
:102820001FD103F0D7FB0546FF2D05D15048807B13
:1028300040F080004E49887300240BE000214E4890
:1028400001552130015508300155183820F8141071
:10285000601CC4B2082CF1DB00204749491F0870F6
:102860001EE04348808800F47040B0F5405F17D107
:1028700003F046FC0546002408E03E48005D3C4964
:10288000C97948403D490855601CC4B2082CF4DBA6
:10289000FF2D05D13648807B40F080003449887395
:1028A00003F0A2FC364802F077FE364802F074FED0
:1028B000002404E0002134480155601CC4B2C82C37
:1028C000F8DB00203049891E0870002404E0002154
:1028D0002E480155601CC4B2642CF8DB00202B4943
:1028E000C91E087001202249887103F045FD0020AF
:1028F0001F498873487264202549C880684600F0E3
:1029000011FA0C216846FFF7E1FE1949C871082148
:102910001848FFF7DBFE1849491F48700C2115487D
:10292000FFF7D4FE1449491F887008211148001D83
:10293000FFF7CCFE1049491FC87001210E48401F07
:102940000171002406E00C48001F015D114801558B
:10295000601CC4B2042CF6DB002406E0002104EB6A
:1029600044020D488154601CC4B2082CF6DBFEBD45
:10297000800300200A000020A50300204904002055
:102980005C2100200C2B0020401F00200C20002088
:10299000722000207F200020BD3400202DE9F0416E
:1029A00004460F4616461D46012104EB44020C481E
:1029B000815404EB44010844477004EB4401084887
:1029C0000844867042F21070854200DD054605B964
:1029D00001252946204606F0D9F9BDE8F08100001E
:1029E000BD34002070B504460D462946606803F0EA
:1029F00073FE6060012070BD55200149087070476A
:102A000094000020024611B902F001004BE00129B8
:102A100002D102F0020046E0022902D102F00400D5
:102A200041E0032902D102F008003CE0042902D170
:102A300002F0100037E0052902D102F0200032E058
:102A4000062902D102F040002DE0072902D102F050
:102A5000800028E0082902D102F4807023E00929CF
:102A600002D102F400701EE00A2902D102F4806053
:102A700019E00B2902D102F4006014E00C2902D104
:102A800002F480500FE00D2902D102F400500AE058
:102A90000E2902D102F4804005E00F2902D102F490
:102AA000004000E0002070472DE9F041024600257B
:102AB0000026002000230024002791F803C00CF01A
:102AC0000F0591F803C01CF0100F03D091F802C05D
:102AD0004CEA050591F800C0BCF1000F31D0146834
:102AE00000202BE04FF0010C0CFA00F3B1F800C00D
:102AF0000CEA03069E4220D183004FF00F0C0CFA23
:102B000003F7BC4305FA03FC4CEA040491F803C044
:102B1000BCF1280F06D14FF0010C0CFA00FCC2F8F2
:102B200014C00AE091F803C0BCF1480F05D14FF082
:102B3000010C0CFA00FCC2F810C0401C0828D1D3CC
:102B40001460B1F800C0BCF1FF0F34DD5468002000
:102B50002EE000F1080C4FF0010808FA0CF3B1F870
:102B600000C00CEA03069E4221D183004FF00F0CF7
:102B70000CFA03F7BC4305FA03FC4CEA040491F891
:102B800003C0BCF1280F05D100F1080C08FA0CF8BD
:102B9000C2F8148091F803C0BCF1480F07D100F1CE
:102BA000080C4FF0010808FA0CF8C2F81080401C1D
:102BB0000828CED35460BDE8F0810000F0B50A4685
:102BC000002300240021002500F00046B6F1004F4C
:102BD00002D11D4EF16901E01B4E7168C0F303453F
:102BE00083B200F44016B6F5401F08D121F07061A1
:102BF000154E766826F07066134F7E6012E000F482
:102C00008016B6F5801F06D1032606FA05F4A14307
:102C100041F0706106E0460D360103FA06F6B14355
:102C200041F0706122B1460D360103FA06F63143D8
:102C300000F00046B6F1004F02D1034EF16101E011
:102C4000014E7160F0BD000000000140024600200E
:102C500093680B4201D0012000E0002070474161E1
:102C600070470161704702460C2901DD0020704762
:102C70006720484302F1080303EB4000F7E770B513
:102C800004460E46204602F0BFFD08B1002070BD8C
:102C9000002518E02078401C207020780C2801DBEB
:102CA0000020207021786068FFF7ACFE48B12078E2
:102CB000307020786721484304F1080101EB40009F
:102CC000E5E7681CC5B20C2DE4DB0020DFE700005F
:102CD0003EB5684600F026F80025002405E01DF802
:102CE00004002844C5B2601CC4B20C2CF7DB0548B4
:102CF000C0792844282190FBF1F201FB1200283012
:102D0000C0B23EBD8003002070B504460D46294682
:102D1000204603F063FC207861780844C6B2304650
:102D200070BD00000EB50146134A12680092124AA7
:102D3000121D12680192104A083212680292002095
:102D400017E05DF82020120E01F820205DF8202009
:102D5000120C01EB80035A703DF82020120A01EB9F
:102D600080039A701DF8202001EB8003DA70421C6A
:102D7000D0B20328E5DB0EBDE8F7FF1F09A1002054
:102D80000BE00A5C124B1A8000BF114A121F128816
:102D900012F0400FF9D0421CD0B22A28F1D300BF64
:102DA000FEE700000D0A456E74657220486172648A
:102DB0004661756C745F48616E646C65722C20535B
:102DC000797374656D2048616C742E0D0A000000E3
:102DD0000438014010B580210848FFF742FF05F094
:102DE000FBFF40210548FFF73CFF05F0F5FF4021C0
:102DF0000248FFF734FF05F0EFFF10BD000C014063
:102E000010B540211148FFF72AFF05F0E5FF01202A
:102E100000F020F805F0E0FF05F0DEFF40210B4850
:102E2000FFF71FFF05F0D8FF80210848FFF70EFFCE
:102E30000749087040210548FFF711FF05F0CCFF56
:102E4000002000F007F805F0C7FF10BD000C01409E
:102E50009000002038B504466CB98020ADF8000021
:102E600010208DF8030003208DF802006946084801
:102E7000FFF71AFE0BE0012C09D18020ADF800000D
:102E800048208DF8030069460148FFF70DFE38BD64
:102E9000000C014010B580210848FFF7E0FE05F066
:102EA0009BFF40210548FFF7DCFE05F095FF402120
:102EB0000248FFF7D4FE05F08FFF10BD000C014063
:102EC00010B580210B48FFF7CCFE05F085FF4021AF
:102ED0000848FFF7C6FE05F07FFF80210548FFF791
:102EE000BEFE05F079FF40210248FFF7B8FE05F06D
:102EF00073FF10BD000C014010B540210B48FFF7D7
:102F0000AEFE05F069FF80210848FFF7A8FE05F036
:102F100063FF40210548FFF7A4FE05F05DFF802117
:102F20000248FFF79EFE05F057FF10BD000C014060
:102F300010B5044624B120210448FFF792FE03E0B7
:102F400020210248FFF78BFE10BD0000000C01405D
:102F500070B5082600240120FFF77CFF15E0402112
:102F60000E48FFF77EFE05F037FF80210B48FFF784
:102F70006DFE054605B1012545EA4400C4B2402175
:102F80000648FFF76CFE05F027FF3000A6F10101AF
:102F9000CEB2E4D1FFF75EFF204670BD000C0140C9
:102FA00070B50446082505F017FF012080F310884E
:102FB00000BF1BE040211148FFF751FE14F0800FC5
:102FC00004D080210D48FFF74CFE03E080210B4820
:102FD000FFF745FE05F000FF40210848FFF741FEDE
:102FE0006006040E05F0F8FE681EC5B2002DE1DC97
:102FF000002080F3108800BF70BD0000000C01406D
:1030000070B500250026364800793649897888420F
:1030100002D10126012510E03248407A1E280ADA42
:103020002F480079FF2806D12D48C078FF2802D10B
:103030000126002501E000260025012E4ED128485A
:10304000007B284988708878012105F071F82448B0
:10305000017B007981422FD000242BE0C4EBC40116
:10306000214810F8110021490870C4EBC4011E4822
:1030700000EB410001791D480171C4EBC4011A48FD
:1030800000EB410041791948417100231A460221A1
:10309000204603F001FFFF201449487048708871F2
:1030A000C870FF21114801714171204605F084F874
:1030B000601CC4B2082CD1DB01200A49887103F0DE
:1030C0005BF90B4802F068FA0A4802F065FA00263C
:1030D000012D03D10025FB2001F0CAFB70BD0000CB
:1030E0003E1F002080030020D60300209203002012
:1030F0005C2100200C2B00202DE9F0470646884675
:10310000914608214A48FFF7AEFD04460CB9BDE8D8
:10311000F08706F00F06082E00DC06B9F7E7701EF0
:10312000C5B22020207000206070A070E07041487F
:103130008078207106F180006071C5EBC5013E48C2
:1031400010F81100FA2806D0C5EBC5013A4810F86E
:103150001100FB281CD10920A0710120E07107207B
:103160002072002709E0C5EB051134480844C15D11
:1031700007F109002154781CC7B2072FF3DB102197
:103180002046FFF7A3FA2074112084F8C8003DE020
:103190000920A07184F8078007202072C5EBC501C3
:1031A000254810F811006072C5EBC501224800EBFC
:1031B00041004078A072C5EBC5011F4800EB4100FB
:1031C0008078E072C5EBC5011B4800EB4100C07878
:1031D0002073C5EBC501184800EB4100007960730E
:1031E000C5EBC501144800EB41004079A073C5EB65
:1031F000C501114800EB41008079E07310212046A1
:10320000FFF764FA2074112084F8C800012004F844
:10321000C90F042060706420E0701E202071A4F1AA
:10322000C9044FF008010248FFF7DCFB00BF6EE75E
:103230005C21002080030020D6030020111E002006
:10324000F8B505460E4629462948FFF70CFD044609
:1032500004B9F8BD0520207000206070A070E070F7
:10326000244880782071681C607123490878694679
:1032700002F014F907462048007AC0B11E48007ACF
:10328000FF2814D00420A071E6719DF80000207280
:103290009DF8010060721848007AA0720B21204648
:1032A000FFF714FAE0720C2084F8C80010E0032045
:1032B000A071E6719DF8000020729DF80100607217
:1032C0000A212046FFF702FAA0720B2084F8C800FA
:1032D000012004F8C90F0520607000202071A4F1BE
:1032E000C90429460248FFF77DFB00BFB1E7000093
:1032F0005C210020800300209203002010B52848A4
:103300008079022849DA08212648FFF7ACFC0446F8
:1033100004B910BD0220207000206070A070204809
:10332000007AE0701E48007A401C1D490872084669
:103330008078207121206071084680880012A07179
:1033400008460079E0710846808800F47040B0F5C6
:10335000304F02D18020207201E010202072002026
:103360006072A0720A212046FFF7B0F904F1AE04A2
:1033700004F8A40C4FF00100E0764FF00B00A076AB
:103380004FF0010020774FF00000E077A4F1AE0489
:103390004FF008010348FFF725FB00BFB9E7000025
:1033A000800300205C2100202DE9F04705462946D6
:1033B0009548FFF758FC04460CB9BDE8F0879348E0
:1033C000808800F47040B0F5304F7DD1C5EBC50169
:1033D0008F4810F81100FA2806D0C5EBC5018C48BB
:1033E00010F81100FB283DD1C5EBC501884810F845
:1033F0001100FA2801D1072600E0062627202070B8
:1034000000206070A0708148007AE0707F48007AE8
:10341000401C7E49087208468078207105F18100C1
:103420006071F01CA0710020E071207200270AE09A
:10343000C5EB0511774808440830C15D07F1090064
:103440002154781CC7B2B742F2DB06F10900C1B2C1
:103450002046FFF73BF906F109016054481C84F847
:10346000C80069E0C5EBC501694810F81100F528EE
:103470002FDBC5EBC501664810F81100F92828DCE0
:103480002720207000206070A0706048007AE070F3
:103490005E48007A401C5D490872084680782071B9
:1034A00005F1810060710320A0710020E07120729D
:1034B000C5EB051157480844007A60720A2120467E
:1034C000FFF704F9A07200E046E00B2084F8C80082
:1034D00032E0C5EBC5014E4810F81100E22806D0D5
:1034E000C5EBC5014A4810F81100E42824D1042096
:1034F000207000206070A0704448007AE07043485B
:10350000007A401C4149087208468078207105F114
:10351000810060710120A071C5EB05113D48084490
:10352000007A00F00100E07108212046FFF7CEF894
:103530002072092084F8C800012004F8C90F042073
:1035400060706420E0701E202071A4F1C904294637
:103550002D48FFF747FA54E02C48808800F470406B
:10356000B0F5405F4DD10420207000206070A07045
:103570002648007AE0702548007A401C23490872EA
:1035800008468078207105F1100060710120A0715B
:10359000681EC11700EB5171C1F3C708C11700EBDA
:1035A0005171C910A0EBC10101F0FF0919480830A1
:1035B00010F80800012101FA09F1084202D00120A7
:1035C000E07101E00020E07108212046FFF77EF85D
:1035D00004F1AE0404F8A60C4FF00900A0764FF0F9
:1035E0000100E0764FF0040020774FF06400A077F0
:1035F0004FF01E00E077A4F1AE0429460248FFF721
:10360000F1F900BFD9E600005C2100208003002012
:10361000D6030020111E002010B500242BE0204608
:1036200004F068FF012824D104EB44011348405CF6
:1036300001281ED11248808800F47040B0F5304F48
:1036400003D12046FFF7B0FE13E00D48808800F458
:103650007040B0F5405F0CD104EB440307481844B8
:10366000827804EB4403054818444178204601F071
:1036700081F9601CC4B2082CD1DB10BDBD34002020
:103680008003002010B508212C48FFF7ECFA04460F
:1036900004B910BD2A48C079012841D12948808841
:1036A00000F47040B0F5304F2AD104202070002083
:1036B0006070A070E07023488078207110206071E5
:1036C0000320A0710020E071207260720A21204660
:1036D000FEF7FCFF04F1AE0404F8A40C4FF00B005D
:1036E000A0764FF00100E0764FF000002077E07701
:1036F000A4F1AE044FF008011048FFF773F91BE086
:103700001048808800F47040B0F5405F14D1FB2071
:1037100001F0AEF800220121104601F02BF90BE078
:103720000748C079022807D101200649887102F0B4
:1037300023FE024801F030FF00BFAAE75C21002011
:103740003E1F00208003002010B52E48C0790728B6
:1037500006D0082842D009284DD020284ED149E073
:103760002948808800F47040B0F5304F26D12548B4
:10377000407A00F00F040CB1082C03DDFC2001F0AE
:1037800077F82AE0601EC4B2C4EBC4011F4810F8E9
:103790001100FF2803D1FC2001F06AF81DE0C821C8
:1037A00004FB01F000F57A7083B2224621462046E0
:1037B000FFF7F4F8FB2001F05BF80EE01248808878
:1037C00000F47040B0F5405F07D1FB2001F050F8E5
:1037D00000220121104601F0CDF810E00948407A9E
:1037E000042803DBFC2001F043F802E0FB2001F099
:1037F0003FF804E003E001F07BF800E000BF00BF09
:1038000010BD00003E1F002080030020D6030020D2
:103810002DE9FE4FF84890F808B0BBF1000F04D135
:10382000FC2001F025F8BDE8FE8FF448808800F404
:103830007040B0F5304F79D1EF48C07900F00F06F5
:103840000EB1082E03DDFC2001F012F8EBE7FE209C
:103850000290701EC6B2C6EBC601E94810F811808E
:10386000B8F1F00F3DDBB8F1FF0F3ADCE248007A27
:10387000022809D1E048407A042805D1DE48817A3F
:10388000304602F0FBFD26E0DB48007A022809D131
:10389000D948407A052805D1D748817A304602F0C8
:1038A00075FD18E0D448007A012808D1D248407A42
:1038B000072804D1FF21304602F068FD0BE0CE4816
:1038C000007A012807D1CC48407A082803D1FF218B
:1038D000304602F0D3FD3046FFF766FDFB20029034
:1038E0002AE0B8F1E00F22DBB8F1EF0F1FDCC2488D
:1038F000007A012808D1C048407A022804D1012169
:10390000304602F0BBFD0BE0BB48007A012807D12E
:10391000B948407A012803D10121304602F036FD32
:103920003046FFF741FDFB20029005E00EE0B8F1C4
:10393000D00F01D0FF2002900298FE2802D130461D
:1039400001F090FA029800F093FFA1E1AB48808863
:1039500000F47040B0F5405FF7D1A748C07900F09F
:103960000F06002E76D1BBF1010F75D1A248457A22
:10397000052D26D15622A349A348FDF7D3FF0120E8
:10398000A14948710846808A40F0060088820020DC
:1039900004F0A8FCFB2000F06BFF9B48007D00F0CA
:1039A000FE00994988820846027D0121002000F02E
:1039B000E1FF4FF47A73062203210020FEF7EEFFA9
:1039C00047E0062D18D156228E498F48FDF7AAFFF1
:1039D00000208D4948710846007D00F0F90088827A
:1039E000002004F07FFCFB2000F042FF00220121B8
:1039F000104600F0BFFF2CE0022D08D1FB2000F0A4
:103A000037FF00220121104600F0B4FF21E0082D0D
:103A10001FD156227B497C48FDF784FF002407E034
:103A200004F13100C1B2784809300155601CC4B2BC
:103A3000062CF5DBFF217448C1730174002004F0EB
:103A400051FCFB2000F014FF38220121002000F07F
:103A500091FFE8E6FCE0FFE7BBF1020F2FD1562211
:103A600068496948FDF75EFF6348407A07280AD134
:103A70006148807A012806D16348808A40F00200BC
:103A8000614988820CE05C48407A072808D15A488E
:103A9000807A28B95C48007D00F0FD005A49888290
:103AA000002004F01FFCFB2000F0E2FE55480E3819
:103AB00090F822200121002000F05CFFB3E6BBF16A
:103AC000090F42D14C48457A00240CE004F108006B
:103AD0004949891C085C4B490B39095D48400DF880
:103AE0000400601CC4B2082CF0DB00244FF008096D
:103AF00044480E38807FFF2803D1A9F1010000F06F
:103B0000FF0940480E38407FFF2803D1A9F101008A
:103B100000F0FF0909E01DF804103A480930005D83
:103B2000814200D003E0601CC4B24C45F3DB00BF0F
:103B3000032D02D14FF0010A09E04C4502D14FF0AC
:103B4000010A04E04FF0000A01E04FF0000ABAF168
:103B5000000F08D1FB2000F08BFE20220121002065
:103B600000F008FF5FE62448C07900F00F06012D41
:103B700001D0022D17D101F0CBFCFB2000F078FE24
:103B800022480178C01C02F093F800201F49887079
:103B90001C480E380670002005F0D6FB2946002090
:103BA00003F066FA37E0042D07D1642015490E3979
:103BB0008870FB2000F05CFE2DE0032D2BD1114816
:103BC0000E388078002823DD56220E490E48FDF776
:103BD000A9FE002406E01DF804100B480930015529
:103BE000601CC4B2082CF6DB002004F07BFBFB2039
:103BF00000F03EFE0FE000003E1F0020800300208A
:103C0000D603002054040020AA040020092000202C
:103C1000FC2000F02DFE1F4890F8227007F00707E7
:103C2000022D02D147F0010701E027F00107032D23
:103C300001D147F02807042D02D147F0180701E011
:103C400047F008073A460121002000F093FE1FE0EC
:103C500037461148007A012808D10F48407A0228D7
:103C600004D13946002002F009FC0BE00A48007A32
:103C7000012807D10848407A012803D1394600209D
:103C800002F084FBFB2000F0F3FD3046FFF78CFBD5
:103C900000BFC8E5460400203E1F002070B5002587
:103CA0001C48407AAA281AD11A48007B18B1194832
:103CB000007BFF2811D1681CC5B2002405E000215B
:103CC0001448801C0155601CC4B212480078A04200
:103CD000F5DC00200F49087001E0FFF791F90D486D
:103CE000807AAA2804D100F03BFF0646A819C5B285
:103CF00008480079FF2803D10648C078FF2807D07C
:103D00001DB1F92000F0B4FD02E0FB2000F0B0FD91
:103D100070BD00003E1F00202DE9F84F4FF0000954
:103D2000CA466B488079032804D1FC2000F0A0FD2E
:103D3000BDE8F88F6648808800F47040B0F5304FD9
:103D40007ED1644890F80880457A077BC07900F0FE
:103D50000F040CB1082C03DDFC2000F089FDE7E71F
:103D6000BB2D02D0CC2D6DD138E05A4AD17A907A51
:103D700001F052F80646FF2E09D0032054498871FD
:103D80000A20C872002008734FF0010A01E04FF0CA
:103D9000000ABAF1010F1ED14F480670601E4E494D
:103DA00048704C48407B88710020C87000214A4808
:103DB00001714171B8F1040F01D1077202E00420D2
:103DC000454908720220FF2301221946009010463F
:103DD00001F022FD01E04FF0010936E0601EC4B29F
:103DE000C4EBC4013D4810F811003B490870C4EB16
:103DF000C4013A4800EB4100017937480171C4EB36
:103E0000C401364800EB41004179334841710678DE
:103E1000FF2031490870487048708871C870FF21D0
:103E20002D480171417100202B490872204604F091
:103E3000C3F929480670CC212046FFF701FA04E0B7
:103E40000FE0FFE74FF0010900BF00BFB9F1010F1C
:103E500003D1FC2000F00CFD37E0FB2000F008FD52
:103E600033E01C4890F80880457A077BC07900F061
:103E70000F04BB2D01D0CC2D27D1FB2000F0F8FC86
:103E8000BB2D05D1642016490873084604701CE058
:103E90001348047001460878CC22022100F06AFD24
:103EA00000220F480078401E0E4921F810200C48CF
:103EB0000078401E20310A5409480078401E103115
:103EC0000A540749087804F00DFA00BF30E70000F3
:103ED000800300203E1F002092030020D603002014
:103EE00046040020C004002010B500241848C07902
:103EF00000F00F00401E174908701548807A48727C
:103F00001348C07A88721248007A002817DD1048DA
:103F1000407A012813D10846407A18B10846407A01
:103F2000382801DD00240AE00B48C07909490872ED
:103F30000B469A7A597A187800F00EFA01241CB9C7
:103F4000FC2000F095FC02E0FB2000F091FC10BD8D
:103F50003E1F00207C200020800300202DE9F04738
:103F6000814688488078002873D1864840780128A7
:103F7000FAD1B9F1080F01DBBDE8F0874946824864
:103F8000FEF771FE044604B9F6E701207D4988700A
:103F9000302020704020607000250AE0C9EBC90184
:103FA0007A4800EB4100C01C415DA81C2154681CEC
:103FB000C5B2032DF2DBC9EBC901744800EB410027
:103FC00080796071002506E06E48C01C415DA81D27
:103FD0002154681CC5B2042DF6DB6A48C07900077D
:103FE000000EA0726748007A401C664908720846B5
:103FF000007A0F2801DD0F200872A07A6149097A42
:104000000844A0725F48807AE0725E48407A20736C
:104010005C48407B002847D15A48477C007B381ACF
:10402000202817DD2020607300250AE05548007B1A
:10403000411954481230415C05F10E002154681CAE
:10404000C5B2202DF2DB4F48007B20304D4908736C
:1040500075E095E04B48007B381A607394F80D804A
:1040600000250AE04748007B411946481230415C70
:1040700005F10E002154681CC5B2607BA842F1DC3A
:104080000026454608E0FF2108F10E003044215487
:10409000701CC6B2681CC5B2202DF4DB0020394963
:1040A0000873012048734AE0364890F87670007B28
:1040B000381A202816DD2020607300250AE03148D8
:1040C000007B41192F487730415C05F10E002154E7
:1040D000681CC5B2202DF2DB2A48007B203029491C
:1040E000087328E02748007B381A607394F80D8025
:1040F00000250AE02348007B411922487730415CC3
:1041000005F10E002154681CC5B2607BA842F1DCA9
:104110000026454608E0FF2108F10E0030442154F6
:10412000701CC6B2681CC5B2202DF4DB00201549F6
:10413000087348734870607B40F0400060732E2124
:104140002046FEF7C3FA84F82E002E21204602F006
:10415000CDFB04F1AE0404F87F0C4FF03000A076E4
:104160004FF00100E0764FF0020020774FF00000A2
:10417000A077E077A4F1AE0449460348FEF732FC8D
:1041800000BFF9E67C2000200C2B0020D603002085
:1041900038B56F48C07900F00F00401E6D490870B7
:1041A0006B48407A48726A48807A88726848C07A58
:1041B00048740846407C642801DD6420487400206F
:1041C00000900FE06248801C9DF800100A31415CAD
:1041D000604812309DF8002081549DF80000401C7A
:1041E000C0B200905B48407C9DF800108842E9DC3A
:1041F0000020584981F8DB0000900FE0554890F806
:10420000DB1012309DF80020805C0844514981F891
:10421000DB009DF80000401CC0B200904D48407C7F
:104220009DF800108842E9DC4A48407C0A30484941
:10423000891C085C474981F87600084690F87600AA
:10424000642802DD642081F876000020009012E0EE
:104250004048407C0B309DF8001001443C48801CD5
:10426000415C3C4877309DF8002081549DF8000067
:10427000401CC0B20090374890F876009DF80010BE
:104280008842E5DC0020334981F8DC0000900FE033
:10429000304890F8DC1077309DF80020805C0844AE
:1042A0002C4981F8DC009DF80000401CC0B2009051
:1042B000284890F876009DF800108842E8DC01203C
:1042C000244948704FF41670C881FB2000F0D0FAE2
:1042D0002049487CC11700EBD16149111D4AD171B9
:1042E0001146487CC11700EBD1614911A0EB411187
:1042F000CCB224B11046C079401C1146C871154992
:1043000091F87600C11700EBD1614C111148C079CA
:1043100020441049C87191F87600C11700EBD161B3
:104320004911A0EB4111CCB224B10A48C079401C1C
:104330000849C8710748C0790F2802DD0F200549D8
:10434000C8710020034908720878FFF707FE38BDDE
:104350003E1F00207C2000202DE9F04106460F463C
:104360009046082E01DBBDE8F08131462A48FEF771
:104370007AFC044604B9F6E7012028498870102029
:1043800020704420607000250AE0C6EBC601244876
:1043900000EB4100C01C415DA81C2154681CC5B243
:1043A000032DF2DBC6EBC6011D4800EB410080790E
:1043B0006071002506E01948C01C415DA81D21540C
:1043C000681CC5B2042DF6DB1448007AA07284F88C
:1043D0000B802773002060730E212046FEF776F9CC
:1043E000A0730E21204602F081FA04F1AE0404F815
:1043F0009F0C4FF01000A0764FF00100E076207780
:104400004FF00000A077E077A4F1AE0431460248F7
:10441000FEF7E8FA00BFA6E70C2B00207C20002066
:10442000D603002070B5054608211C48FEF71BFC8A
:10443000044604B970BD2620207000206070A07072
:10444000E07017488078207105F1810060710320C9
:10445000A0710120E0711348407A20720020607240
:104460000A212046FEF732F904F1AE0404F8A40C48
:104470004FF00B00A0764FF00100E0764FF0020005
:1044800020774FF01E00E077A4F1AE044FF0080152
:104490000248FEF7A7FA00BFCCE700005C2100202D
:1044A000800300207C20002070B50646082141488A
:1044B000FEF7D9FB044604B970BD06202070002029
:1044C0006070A070E0703C488078207110206071AE
:1044D000FC2E0AD10020A07107212046FEF7F6F835
:1044E000E071082084F8C80054E03448407C801C07
:1044F000324991F876100844801CA0712F48407A08
:10450000E0712E48807A20722C48407C6072002531
:1045100007E02A481230415D05F10A002154681C69
:10452000C5B22648407CA842F3DC244890F87610B7
:10453000407C0A302154002509E020487730415D55
:104540007738407C0B3028442154681CC5B21B4886
:1045500090F87600A842F0DC1848407C0B30174AEF
:1045600092F876201044C1B22046FEF7AFF801461B
:104570001248407C0B30114A92F8762010442154A6
:104580000E48407C0A300D4991F876100844801C92
:1045900084F8C800012004F8C90F042060701E20B0
:1045A0002071A4F1C9044FF008010248FEF71AFA7D
:1045B00000BF81E75C210020800300207C200020D8
:1045C0002DE9F04706460C469146C6EBC601604809
:1045D00010F81100FA2822D0C6EBC6015C4810F88A
:1045E0001100FB281BD0C6EBC601594810F811007A
:1045F000FC2814D0C6EBC601554810F81100F92864
:104600000DD0C6EBC601524810F81100F52806D0AF
:10461000C6EBC6014E4810F81100F8281ED1002C38
:1046200001DD601EC4B22046E11704EB5171C1F3F5
:10463000C707E11704EB5171C910A4EBC10101F0E8
:10464000FF08C6EB0611434808440830C05D01214D
:1046500001FA08F1084201D1BDE8F087C6EBC601B6
:104660003B4810F81100F5283ADBC6EBC601384884
:1046700010F81100F92833DC002C01DD601EC4B2F3
:104680002046E11704EB5171C1F3C707E11704EBB2
:104690005171C910A4EBC10101F0FF08C6EB06116E
:1046A0002C4808440830C05D012101FA08F100EAF5
:1046B000010AC6EBC601264810F81100F72806D0FB
:1046C000C6EBC601224810F81100F62804D1214893
:1046D000401E407A20B9BFE7BAF1000F00D1BBE716
:1046E00031461D48FEF7BFFA054605B9B4E7042078
:1046F000287000206870A870E870184880782871C9
:1047000006F1810068710220A871601CE87185F8CB
:10471000089009212846FDF7D9FF05F1AE0505F8F7
:10472000A50C4FF00A00A8764FF00100E8764FF094
:10473000040028774FF00000A8774FF01E00E877BC
:10474000A5F1AE0531460448FEF74CF900BF83E7FA
:10475000D6030020111E00205C21002080030020D1
:1047600008B50320084988710A20C8720020087320
:10477000064908700220FF230122194600901046C6
:1047800001F04AF808BD0000800300204604002024
:1047900070B508213148FEF766FA044604B970BDC9
:1047A0002020207000206070A070E0702C4880787D
:1047B0002071102060711620A0710020E07128483F
:1047C000808800F47F40B0F5485F0BD1002506E0FB
:1047D0002448415D05F108002154681CC5B2152D1F
:1047E000F6DB1DE01E48808800F47040B0F5304FC5
:1047F0000BD1002506E01C48415D05F1080021545D
:10480000681CC5B2152DF6DB0AE0002506E0174846
:10481000415D05F108002154681CC5B2152DF6DB79
:104820001D212046FDF752FF04F1AE0404F8910C5F
:104830004FF01E00A0764FF00100E0764FF004002C
:1048400020774FF01E00E077A4F1AE044FF008018E
:104850000248FEF7C7F800BFA1E700005C21002076
:1048600080030020190000202E00002043000020BB
:1048700010B5044603201C49C87000211A48017174
:1048800041718171194801791748C171FB2C01D020
:10489000FE2C0FD120211448017200214172072102
:1048A000C01CFDF713FF1049887208200870012012
:1048B000887017E020210C48017201214172F92C07
:1048C00002D1F321817202E0F121074881720821AF
:1048D0000548C01CFDF7FAFE0349C872092008709C
:1048E0000120887010BD0000092000203E1F00201C
:1048F00070B508211C48FEF7B6F9044604B970BD2E
:104900000620207000206070A070E070174880784A
:104910002071882060710820A071154E002504E0E8
:10492000715DE81D2154681CC5B2082DF8DB0F210C
:104930002046FDF7CBFE04F1AE0404F89F0C4FF0C7
:104940001000A0764FF00100E0764FF004002077D1
:104950004FF01E00E077A4F1AE044FF008010248CA
:10496000FEF740F800BFCAE75C210020800300206A
:1049700000FC00082DE9F04180460F4615464146EF
:104980007348FEF770F904460CB9BDE8F081F7B939
:104990002420207000206070A070E0706D48807846
:1049A000207108F1100060710320A0710120E071F6
:1049B0000020207265720A212046FDF787FEA07252
:1049C0000B2084F8C80001206349487067E0012F7C
:1049D00035D10420207000206070A070E0705D4828
:1049E0008078207184F805800920A071E571002687
:1049F00007E05948C01C815D06F108002154701C75
:104A0000C6B2082EF5DB10212046FDF75FFE2074AC
:104A1000112084F8C80001204F49487015F0010F9B
:104A200006D14E48007D00F0FE004C49888236E0F9
:104A30004A48808A40F00100484988822FE0022FCE
:104A40002DD10520207000206070A070E0704148DA
:104A50008078207184F80580BB2D12D10320A071CD
:104A6000E5718E202072002060720A212046FDF739
:104A70002DFEA0720B2084F8C80001203649487032
:104A80000DE00120A071E57108212046FDF71EFE12
:104A90002072092084F8C80001202F494870032F94
:104AA00025D12520207000206070A070E07029487A
:104AB00080782071102060710920A071E5710026B6
:104AC00007E02548C01C815D06F108002154701CD8
:104AD000C6B2082EF5DB10212046FDF7F7FD207445
:104AE000112084F8C80001201B4948701FE0042FE2
:104AF0001DD10420207000206070A0701548007A3D
:104B0000E0701448007A401C124908720846807808
:104B1000207108F1100060710120A071E571082179
:104B20002046FDF7D3FD2072092084F8C80001203B
:104B300004F8C90F042060700020E0701E2020716E
:104B4000A4F1C90441460248FDF74CFF00BF1CE731
:104B50005C2100208003002046040020AA040020DD
:104B600070B51648007916498978884201D000202E
:104B700070BD1248457B867B06EB052084B2B4F5F8
:104B8000314F08D0A4F53140403804D004F47040CF
:104B9000B0F5405F10D10721284603F0C9FA06217D
:104BA000304603F0C5FA0648848001200449887124
:104BB00001F0E2FB0020DBE70120D9E73E1F0020E7
:104BC000800300200F484079AA2819D10D48807928
:104BD000AA2815D10B48C079CF2811D10948007AED
:104BE000CF280DD10748407AFE2809D10548807AA0
:104BF000012805D10448807B40F0080002498873F1
:104C0000704700003E1F0020800300202DE9FC417A
:104C10005948007808B9BDE8FC81574880780228D7
:104C200000D1F8E75448C778007900EB07275248CD
:104C30000679A7F57F40FF3807D050488078B0420A
:104C400003D000204C490870E5E74B480078401E2F
:104C5000C1B24948801CFDF739FD0446464800783A
:104C6000401E4549891C095CA14275D144488078A1
:104C700038B9012003460C2211460090002000F0B4
:104C8000CBFD3D488578072D2DD006DC6AD2DFE8C4
:104C900005F01316191A1B1E2400232D5DD006DC07
:104CA000082D17D0202D21D0222D5BD14AE0262DB2
:104CB00016D0E02D56D154E0FEF7E4FC56E0FEF7A6
:104CC00043FD53E052E051E0FEF7A2FD4EE0FFF756
:104CD00023F84BE0FEF7E2FF48E0FFF759FA45E022
:104CE000FFF702F942E0FFF76DFF3FE02248007A4C
:104CF000012808D12048407A28B9FFF749FDFB2058
:104D0000FFF7B6FD1DE01C48007A012819DD1A4B9B
:104D10009A7A597AD879FEF7EFF9FB20FFF7A8FDC8
:104D200003208DF804001548C0798DF80500012096
:104D30008DF8060000208DF8070001AA032102F07B
:104D400043F813E00D48807B40F008000B4988735E
:104D5000FB20FFF78DFD09E009E0FC20FFF788FD4F
:104D600004E003E0FC20FFF783FD00BF00BF00204C
:104D70000149087000BF4EE73E1F0020800300205D
:104D80000400002038B520480078042839DB1E488C
:104D90008078032835D11C4804791C488078A042CB
:104DA0002FD11A488079022829DA1748007A012879
:104DB0001AD11548407AF2280BD101201449887085
:104DC000FF23192211460090002000F025FD00204D
:104DD00038BD0D48407AA0B902200C4988710D48B1
:104DE00000F0DAFB0120F3E70748007A48B9022017
:104DF00006498871074800F0CFFB0120E8E7012051
:104E0000E6E70020E4E700003E1F002080030020CA
:104E1000040000205C2100200246752A03D14029AD
:104E200001D1F8201DE0772A03D1402901D1F920D2
:104E300017E0762A03D1102901D1FA2011E0762A51
:104E400003D1202901D1FB200BE08B2A02D109B923
:104E5000E22006E08B2A03D1202901D1E42000E0E2
:104E6000FF20704770B5054629462C48FDF7FBFE2C
:104E7000044604B970BD0420207000206070A0704A
:104E8000E07027488078207105F181006071C5EBE2
:104E9000C501244810F81100312806D0C5EBC50122
:104EA000204810F8110021280ED10120A0711D48C2
:104EB0001038405DE07108212046FDF707FC2072A4
:104EC000092084F8C80019E0C5EBC501154810F8A1
:104ED0001100022811D10320A07112481038405D42
:104EE000E0710020207260720A212046FDF7EEFB7F
:104EF000A0720B2084F8C80000E0BBE7012004F892
:104F0000C90F042060701E202071A4F1C904294635
:104F10000248FDF767FD00BFACE700005C21002000
:104F200080030020D60300202DE9F04107460D46FE
:104F3000904639461C48FDF796FE04460CB9BDE87C
:104F4000F0810420207000206070A070E07017488D
:104F50008078207110206071A571032D00DD03257C
:104F6000002605E018F80610F01D2154701CC6B28A
:104F7000AE42F7DBE81DC1B22046FDF7A7FBE91DF5
:104F80006054481C04F8C80F012060700420A07011
:104F9000002020711E206071A4F1C8043946024827
:104FA000FDF720FD00BFCAE75C2100208003002040
:104FB00070B5A8480078002851D1A748C0880028BB
:104FC00000DD70BDA549A648FDF759FE0546002D38
:104FD0003ED095F8C900012827D115F8C80FA1497E
:104FE0000870A878A0490870E878A5F1C8059F491D
:104FF00008704FF0000406E0285D9D490855002028
:105000002855601CC4B2974800788442F4DB012024
:1050100090490870FDF75CFE8F4908710120087007
:10502000487000204872887004E000208D490870A4
:1050300088490870002005F1C805A87028706870BC
:10504000A5F1C805854801788548FDF787FBFFE095
:10505000002080490870804908704870B1E77D4899
:10506000007801281CD17C4800780128EFD17A48CB
:105070008078794909798842E9DB012076494870CE
:105080000020087077480178794800F011FE02206E
:10509000704908700020704948720872C870D7E0E3
:1050A0006C480078022856D16B48007A012834D128
:1050B0000020694908726B4801786D48FDF7C8F80F
:1050C0000646CEB968480078002811DD66480078A9
:1050D000401E6549087001205E490870FDF7F8FD23
:1050E0005D4908710120087000208870487214E042
:1050F00000205849087010E0012E06D103205549C0
:10510000087000205449487207E0022E05D10320A0
:10511000504908700020504948724F48407A64282E
:1051200095DB51480078002811DD4F480078401E7B
:105130004D490870012047490870FDF7C9FD4649EF
:1051400008710120087000208870487280E00020FB
:10515000404908707CE03F48007803284FD13E4822
:10516000007A012826D100203B490872FFF70AFE89
:105170000646CEB93C480078002811DD3A48007850
:10518000401E39490870012032490870FDF7A0FD22
:10519000314908710120087000204872887009E0C8
:1051A00000202C49087005E004202A4908700020DE
:1051B000294948722848407A962849DB2A480078CD
:1051C000002811DD28480078401E2749087001207A
:1051D00020490870FDF77CFD1F4908710120087007
:1051E00000204872887033E000201A4908701F4878
:1051F000007801282CD100201C49087028E01548AF
:105200000078042824D1002012490870002404E00A
:10521000002017490855601CC4B212480078844227
:10522000F6DB00200F4908700F490870002404E0E5
:10523000002110480155601CC4B20E48801E007841
:10524000A042F5DC00200B49891E08700249487015
:1052500000BFB6E658000020722000205900002050
:105260005C2100205A0000205B0000205C00002030
:10527000D5340020401F00202DE9F04105460E46A0
:105280000027B846C5EB0511304808440830C05D1A
:10529000012101FA08F1084201D1BDE8F081294657
:1052A0002B48FDF7E0FC044604B9F6E72420207003
:1052B00000206070A070E070264880782071C5EBF7
:1052C000C501254810F81100E22812D1681C607150
:1052D0000320A0710120E0710020207270786072BC
:1052E0000A212046FDF7F2F9A0720B2084F8C800CD
:1052F0001AE0C5EBC501184810F81100E42812D1D6
:10530000681C60710320A0710220E0717078207227
:10531000B07860720A212046FDF7D8F9A0720B2000
:1053200084F8C80000E0B8E7012004F8C90F0420A1
:1053300060700020E0701E202071A4F1C90429468D
:105340000348FDF74FFB00BFA7E70000111E002038
:105350005C21002080030020D60300202DE9F047C7
:1053600006460D469146C6EBC601484810F81100A6
:10537000F72806D0C6EBC601444810F81100F628FD
:1053800009D1C6EB061142480844007A10F0010F1B
:105390001FD1BDE8F087002D01DD681EC5B228468B
:1053A000E91705EB5171C1F3C707E91705EB517117
:1053B000C910A5EBC10101F0FF08C6EB0611344886
:1053C00008440830C05D012101FA08F1084200D10B
:1053D000DFE731462F48FDF746FC044604B9D8E71D
:1053E0000420207000206070A0702B48C079E0700D
:1053F0002948C079401C2849C87108468078207126
:1054000006F181006071C6EBC601204810F811005A
:10541000F82806D0C6EBC6011C4810F81100F52884
:105420000CD10120A071681CE07108212046FDF715
:105430004DF92072092084F8C80016E0C6EBC601B9
:10544000124810F81100F9280ED10220A071681C32
:10545000E0710120207209212046FDF737F96072C2
:105460000A2084F8C80000E093E7012004F8C90F7F
:10547000042060700020E0701E202071A4F1C90497
:1054800031460448FDF7AEFA00BF82E7D60300209C
:10549000111E00205C210020800300200246FE2017
:1054A000F82A04D175230B7040234B7026E0F92AAB
:1054B00004D177230B7040234B701FE0FA2A04D1EC
:1054C00076230B7010234B7018E0FB2A04D176234F
:1054D0000B7020234B7011E0E22A04D18B230B7058
:1054E00000234B700AE0E42A04D18B230B702023A5
:1054F0004B7003E000230B704B70FF2070470000DF
:105500004CF6CC4001490860704700000030004074
:1055100010B500F001F810BD4AF6AA200149086054
:1055200070470000003000400149486070470000AB
:1055300000300040014988607047000000300040A2
:1055400001490860704700000030004030B50B464C
:1055500045785540457044780578654005700221CE
:1055600004E0455C654045544D1CE9B29942F8DBC6
:1055700030BD30B50B464478057865400570022192
:1055800004E0455C654045544D1CE9B29942F8DBA6
:1055900045785540457030BD00210170416070472D
:1055A00070B50446FF2C1AD1002515E0FF201849DC
:1055B000087048708870C870FF21154801714171EA
:1055C000FF201349887100204881FF200873284676
:1055D00002F0F2FD681CC5B2082DE7DB16E0082CCE
:1055E00000DB70BDFF200A49087048708870C870E1
:1055F000FF21074801714171FF2005498871002092
:105600004881FF200873204602F0D6FD00BFE8E77E
:105610009203002070B50546FF2D52D1002405E00D
:1056200000212E4820F81410601CC4B2102CF7DBA7
:10563000002405E00021294820300155601CC4B237
:10564000102CF7DB002405E0002124483030015500
:10565000601CC4B2102CF7DB002405E0FF201F49BA
:1056600016390855601CC4B2042CF7DB002406E090
:10567000601CC1B219480D380155601CC4B2062C1B
:10568000F6DBFF2115481638C17301740020134959
:10569000163908718871C87108724882FF208882A3
:1056A000002002F01FFE002405E0611CC8B202F0D9
:1056B00019FE601CC4B2102CF7DB00200849C87228
:1056C0000BE00021054820F815102030415510301E
:1056D0004155691CC8B202F005FE70BDC00400202F
:1056E0004604002070B5002524E01448807B10F0AB
:1056F000080F01D1FFF70CFF002407E00021C5EBE4
:1057000005120F4810440155601CC4B2082CF5DB8B
:10571000002408E00021C5EB0512094810440830B8
:105720000155601CC4B2082CF4DB284602F080FE50
:10573000681CC5B2082DD8DB70BD000080030020B6
:10574000111E00202DE9F04104460F4690461049F5
:10575000487AC11700EB5171CD100D49487AC11735
:1057600000EB5171C910A0EBC101CEB2C4EB041122
:1057700008480844415D0120B0400143C4EB0412D5
:10578000044810444155204602F052FEBDE8F08125
:105790007C200020111E00202DE9F04104460F4618
:1057A00090461049487AC11700EB5171CD100D4950
:1057B000487AC11700EB5171C910A0EBC101CEB2FC
:1057C000C4EB041108480844405D0121B1408843FE
:1057D000C4EB0412044911444855204602F028FE47
:1057E000BDE8F0817C200020111E002010B54FF490
:1057F00000410448FDF72AFA08B9012010BD002035
:10580000FCE70000000801400146486808B9012093
:1058100070470020FCE7000070B5049C022800DB04
:1058200070BD1B4D05F8301005EBC0056A70184DB2
:1058300005EBC005E970164D05EBC0052A71144D46
:1058400005EBC005AB700125114E06EBC006757166
:1058500000250F4E06EBC006F57144B90C4D05EB63
:10586000C0056D790A4E06EBC006B5710EE0012C3D
:1058700005D10125064E06EBC006B57106E0022CE7
:1058800004D10025024E06EBC006B57100BFC7E784
:10589000F836002000BFFEE72DE9FC474FF0000876
:1058A000684602F00BFF8146B9F1010F12D1BDF835
:1058B00000804FEA282708F0FF060198C5B2012FA3
:1058C00003D107201049485504E0002231462846FC
:1058D000FEF776FE002413E00B48005D002804DD8F
:1058E0000948005D401E084908550748005D012829
:1058F00004D1002207212046FFF730FD601CC4B20E
:10590000082CE9DBBDE8FC875D000020002001E0F9
:10591000411CC8B20A28FBDB7047704770B50021F4
:1059200000230F22C4780CB3164C246804F4E064FE
:10593000C4F5E064210AC1F10403CA40447804FAC2
:1059400003F184781440214309010F4C0678A155D6
:10595000047804F01F050124AC4005786D114FF068
:10596000E02606EB8505C5F8004109E0047804F05F
:105970001F050124AC40054D0678761145F82640F8
:1059800070BD00000CED00E000E400E080E100E00C
:1059900002490143024A1160704700000000FA0505
:1059A0000CED00E0024A0A400243024B1A607047C5
:1059B00080FFFF1F08ED00E038B5044601210420F8
:1059C00000F04CF84CB90820ADF8000010208DF81C
:1059D000030003208DF8020008E00820ADF8000065
:1059E00048208DF8030003208DF802006946024824
:1059F000FDF75AF838BD0000000801402DE9F041DC
:105A000006460F469046E02F01D1002500E0042510
:105A1000002409E018F80410C6EB061206481044EA
:105A20002A198154601CC4B2042CF3DB304602F006
:105A3000FFFCBDE8F0810000111E002029B1064ADC
:105A4000D2690243044BDA6104E0034AD26982431B
:105A5000014BDA61704700000010024029B1064A8C
:105A600092690243044B9A6104E0034A92698243BB
:105A7000014B9A6170470000001002400348406AE1
:105A800040F08070014948627047000000100240F9
:105A900030B500210022002400232D4D6D6805F053
:105AA0000C0121B1042905D0082923D105E0294D95
:105AB000056022E0274D05601FE0254D6D6805F467
:105AC0007012234D6D6805F48034022505EB924277
:105AD0001CB9214D554305600BE01D4D6D6815F453
:105AE000003F03D01C4D5543056002E0194D55435E
:105AF000056002E0174D056000BF00BF144D6D68E2
:105B000005F0F0010909154D6B5C0568DD40456045
:105B10000F4D6D6805F4E061090A104D6B5C456836
:105B2000DD4085600A4D6D6805F46051C90A0B4D72
:105B30006B5C4568DD40C560054D6D6805F440410E
:105B4000890B074D6B5CC568B5FBF3F5056130BD8E
:105B50000010024000127A0000093D0057030020A7
:105B60006703002010B501460022002300204A11DF
:105B7000012A02D1094C236806E0022A02D1074C0F
:105B8000236A01E0054C636A01F01F02012494407E
:105B90001C4201D0012000E0002010BD0010024096
:105BA00070B506460C4640210748FDF74FF840B94E
:105BB000304600F0DDFC0546FFF7A8FE2570012009
:105BC00070BD0020FCE700000008014070B50546EC
:105BD0000E46142000F05CFE31460D20FCF7A0F8C4
:105BE000602000F055FE31462846FCF733F81A20B5
:105BF00000F04EFE0A20FCF70BF909E0601C84B2AD
:105C00000A20FCF705F94CF25030844200DD05E033
:105C100040210848FDF71AF80128EFD000BF1420F2
:105C200000F036FE182000F033FE0120FCF7F0F8FB
:105C300070BD0000000801402DE9F04106460F4606
:105C40000024142000F024FE01210D20FCF768F848
:105C5000602000F01DFE00251AE0FFF759FC01212D
:105C60003046FBF7F7FF1A2000F012FE0120FCF788
:105C7000CFF8002404E0641C0B48844200D905E0FE
:105C800040210A48FCF7E2FF0128F4D000BF6D1C58
:105C900040F226208542E0D3142000F0F9FD0A20CE
:105CA000FCF7B6F8BDE8F081005506000008014099
:105CB0002DE9F04105460E4604211448FCF7D1FFBA
:105CC000C82700BF3800A7F101018FB2FAD1002424
:105CD0000CE0295D0E4801F070F800BF40210C482F
:105CE00000F09DFF0028F9D0601CC4B2B442F0DB84
:105CF0004FF4967700BF3800A7F101018FB2FAD1B7
:105D000004210248FCF7ABFFBDE8F081000C014024
:105D1000004800402DE9F04104460E46154645E096
:105D2000FDF7CEF8A020FDF73BF9FDF769F8224812
:105D3000007800B13BE02746E11704EB1161C1F3A5
:105D40000720FDF72DF9FDF75BF81B48007800B13F
:105D50002DE0E0B2FDF724F9FDF752F8164800787F
:105D600000B124E0FDF7ACF8A120FDF719F9FDF72B
:105D700047F81148007800B119E00FE0FDF7E8F8A6
:105D800006F8010B681E85B2002D02DDFDF782F8D2
:105D900004E0FDF71FF8FDF7AFF801E0002DEDDCA2
:105DA00000BF1DB904480078BDE8F081B8E700BF26
:105DB00001480078F8E7000090000020F0B58DB0B1
:105DC00007460E46002503F03FFA10B100200DB043
:105DD000F0BDCC2003F0E6FA0F222846691CCDB2B4
:105DE0000DF8002007B100E000222846691CCDB262
:105DF0000DF80020002405E01DF8040003F0D2FA9D
:105E0000601CC4B2AC42F7DB03F06AFA29466A1C94
:105E1000D5B20DF8010003F063FA29466A1CD5B229
:105E20000DF8010000202D490860002405E01DF850
:105E3000040002F0D9FF601CC4B2AC42F7DB274873
:105E400000684BF20101884201D0FF20BFE77FB11B
:105E50000024002509E003F043FA7055705D0DF849
:105E60000400681CC5B2601CC4B2202CF3DB0EE039
:105E70000024002509E0305D03F094FA305D0DF850
:105E80000500681CC5B2601CC4B2202CF3DB03F013
:105E900027FA29466A1CD5B20DF8010003F020FA52
:105EA00029466A1CD5B20DF8010003F0CDF9002097
:105EB0000A490860002405E01DF8040002F094FF80
:105EC000601CC4B2AC42F7DB044800684BF201012D
:105ED000884201D0FF207AE7AA2078E74803002013
:105EE0002DE9F84304460CB920251AE0012C01D114
:105EF000232516E0022C01D1262512E0032C01D126
:105F000029250EE0042C01D12C250AE0062C01D114
:105F10002F2506E0072C01D1322502E0FF20BDE845
:105F2000F8834FF002080BE0032269462846FFF78A
:105F3000F1FE0746A8F1010000F0FF0807B902E0F2
:105F4000B8F1000FF0DC00BF9DF800009DF80110D3
:105F500088420ED19DF801009DF80210884208D1B8
:105F60009DF800009DF80210884202D19DF80000C3
:105F7000D5E79DF800009DF80110884207D19DF8F3
:105F80000000214602F0D4F89DF8006020E09DF862
:105F900000009DF80210884207D19DF800002146BC
:105FA00002F0C6F89DF8006012E09DF801009DF82F
:105FB0000210884207D19DF80100214602F0B8F88E
:105FC0009DF8016004E02146FF2002F0B1F8FF26B1
:105FD0003046A4E72DE9F04389B00027B8460025F4
:105FE0007EE002270EE04FF4807101EB4510202285
:105FF00001A9FFF78FFE8046781EC7B2B8F1000FE7
:1060000000D101E0002FEEDC00BF0026002405E0F7
:1060100001A8005D3044C6B2601CC4B21F2CF7DB7F
:106020009DF82300B0420FD1C5EBC501324800EB0B
:106030004109002405E001A8005D09F80400601C86
:10604000C4B2202CF7DB49E002270EE04FF40071C8
:1060500001EB4510202201A9FFF75CFE8046781E67
:10606000C7B2B8F1000F00D101E0002FEEDC00BF95
:106070000026002405E001A8005D3044C6B2601C83
:10608000C4B21F2CF7DB9DF82300B04212D1C5EB40
:10609000C501194800EB4109002405E001A8005D95
:1060A00009F80400601CC4B2202CF7DB284602F07B
:1060B00083F813E0FF201149087048708870C87099
:1060C000FF210E4801714171FF200C4988710020A9
:1060D0004881FF200873284602F06EF8681CC5B29C
:1060E000082DFFF67EAFB8F1000F03D0FF2009B0F6
:1060F000BDE8F083FE20FAE7D603002092030020DB
:106100002DE9F04395B00026B046B146022610E0D6
:1061100009EB89014FF4806202EB0110502201A9C2
:10612000FFF7F8FD8046701EC6B2B8F1000F00D12F
:1061300001E0002EECDC00BF0025002405E001A8F2
:10614000005D2844C5B2601CC4B24F2CF7DB9DF83B
:106150005300A8420AD1234F002404E001A8005DA7
:106160003855601CC4B2502CF8DB31E002260CE03C
:10617000502201A94FF4C060FFF7CCFD8046701E8D
:10618000C6B2B8F1000F00D101E0002EF0DC00BF74
:106190000025002405E001A8005D2844C5B2601C6C
:1061A000C4B24F2CF7DB9DF85300A8420DD10D4F20
:1061B000002404E001A8005D3855601CC4B2502CD6
:1061C000F8DB484602F08EF802E0FF20FFF722FAE3
:1061D000B8F1000F03D0FF2015B0BDE8F083FE201A
:1061E000FAE70000540400202DE9FF470027B846D5
:1061F000002586E002270EE04FF4006101EB051058
:1062000010226946FFF786FD8046781EC7B2B8F1B6
:10621000000F00D101E0002FEEDC00BF00260024BB
:1062200005E01DF804003044C6B2601CC4B20F2C57
:10623000F7DB9DF80F00B0420FD1C5EB05113748D1
:1062400001EB0009002405E01DF8040009F8040032
:10625000601CC4B2102CF7DB51E002270EE04FF4B3
:10626000406101EB051010226946FFF753FD80469F
:10627000781EC7B2B8F1000F00D101E0002FEEDCAC
:1062800000BF0026002405E01DF804003044C6B21B
:10629000601CC4B20F2CF7DB9DF80F00B04212D186
:1062A000C5EB05111D4801EB0009002405E01DF8B0
:1062B000040009F80400601CC4B2102CF7DB284667
:1062C00002F0B6F81BE0002407E00021C5EB051240
:1062D000124810444155601CC4B2082CF5DB002460
:1062E00008E00021C5EB05120C4810440830415568
:1062F000601CC4B2072CF4DB284602F099F8681C35
:10630000C5B2082DFFF676AFB8F1000F03D0FF201D
:1063100004B0BDE8F087FE20FAE70000111E00205F
:1063200070B5054602F090FF08B1002070BD332023
:1063300003F038F80A20FCF71CFA002404E002F00D
:10634000CFFF2855601CC4B2082CF8DB0020094997
:106350000870002404E0285D02F07CFD601CC4B2DB
:10636000082CF8DB0348007808B10020DEE70120A4
:10637000DCE70000440300200320034908700020EC
:106380008880487088707047040000202DE9F0472D
:1063900005460C464FF00009C5EBC501354810F81D
:1063A0001100FA2802D14FF03A0928E0C5EBC501E7
:1063B000304810F81100FB2802D14FF02E091EE0E2
:1063C000C5EBC5012B4810F81100FC2802D14FF095
:1063D000070914E0C5EBC501264810F81100E228B2
:1063E00002D14FF001090AE0C5EBC501214810F8C0
:1063F0001100E42802D14FF0010900E0A1461CB1D0
:106400004C4503DDFF2C01DABDE8F087FF2C1FD0DF
:10641000601EC4B22046E11704EB5171CE10E117A3
:1064200004EB5171C910A4EBC10101F0FF08C5EBE9
:106430000511114808440830805D012101FA08F176
:106440008843C5EB05120C491144083188550CE00E
:10645000002708E00021C5EB05120748104408306A
:106460008155781CC7B2072FF4DB284601F0E0FF06
:1064700000BFC9E7D6030020111E00202DE9F04718
:1064800005460C464FF00009C5EBC501364810F82B
:106490001100FA2802D14FF03A0928E0C5EBC501F6
:1064A000314810F81100FB2802D14FF02E091EE0F0
:1064B000C5EBC5012C4810F81100FC2802D14FF0A3
:1064C000070914E0C5EBC501274810F81100E228C0
:1064D00002D14FF001090AE0C5EBC501224810F8CE
:1064E0001100E42802D14FF0010900E0A1461CB1DF
:1064F0004C4503DDFF2C01DABDE8F087FF2C20D0EE
:10650000601EC4B22046E11704EB5171CE10E117B2
:1065100004EB5171C910A4EBC10101F0FF08C5EBF8
:106520000511124808440830805D012101FA08F184
:106530000843C1B2C5EB05120C4810440830815520
:106540000CE0002708E0FF21C5EB051207481044C6
:106550000830C155781CC7B2072FF4DB284601F07C
:1065600067FF00BFC8E70000D6030020111E00200F
:1065700070B50646E02000F08BF910211648FCF7B4
:106580006EFBC020FBF71EFEFBF7F4FD05463F2D1A
:1065900007DB142000F07CF9182000F079F90020C6
:1065A00070BD0DB90020FBE7002404E0FBF7E2FD1D
:1065B0003055601CC4B2AC42F8DBFF2000F068F933
:1065C0005020FBF725FC182000F062F9102102484A
:1065D000FCF747FB2846E3E70008014070B5044696
:1065E0000D460020384908700BE037480078205CE1
:1065F0003649354A1278885433480078401C32496D
:10660000087031480078A842EFDB2F48057009E098
:1066100000202E492C4A127888542B480078401CC0
:1066200029490870284800782028F1DB03202849F0
:10663000087015E0012001F056FF24490020FFF703
:10664000BDFB24490870002001F04DFF214800786F
:10665000AA2800D108E01E480078401E1C49087096
:106660001B4800780028E5DC00BF032018490870AB
:1066700019E0012001F037FF144A00210120FBF747
:1066800099FF14490870002001F02DFF114800788F
:10669000FF2803D00F48007800B108E00C480078CC
:1066A000401E0B4908700A4800780028E1DC00BF52
:1066B00020210648FCF70AF820702021034800F04A
:1066C00015F9607070BD0000650000209D35002048
:1066D000660000206700002011B940F001004BE087
:1066E000012902D140F0020046E0022902D140F027
:1066F000040041E0032902D140F008003CE00429F5
:1067000002D140F0100037E0052902D140F020000E
:1067100032E0062902D140F040002DE0072902D1E5
:1067200040F0800028E0082902D140F4807023E086
:10673000092902D140F400701EE00A2902D140F478
:10674000806019E00B2902D140F4006014E00C29AC
:1067500002D140F480500FE00D2902D140F40050E6
:106760000AE00E2902D140F4804005E00F2902D151
:1067700040F4004000E000BF704710B500F002F8A0
:1067800010BD00000CB50020019000903248006858
:1067900040F480303049086000BF2F48006800F4A2
:1067A000003000900198401C0190009818B90198A1
:1067B000B0F5A06FF1D12848006810F4003F02D076
:1067C0000120009001E0002000900098012842D1B3
:1067D0002248006840F01000204908600846006820
:1067E00020F0030008600846006840F002000860DE
:1067F000194840681849486008464068486008469B
:10680000406840F4806048600846406820F47C108E
:1068100048600846406840F4E81048600846006850
:1068200040F08070086000BF0B48006810F0007FE7
:10683000FAD00948406820F003000749486008463C
:10684000406840F00200486000BF0348406800F024
:106850000C000828F9D10CBD0010024000200240B5
:1068600038B504461CB910208DF8030002E048201A
:106870008DF8030003208DF802008020ADF80000A1
:1068800069460248FCF710F938BD000000080140D5
:1068900070B5044610211448FCF7E1F900251BE00F
:1068A00014F0800F04D080210F48FCF7DAF903E0E0
:1068B00080210D48FCF7D3F9FFF728F820210A487A
:1068C000FCF7CFF9FFF722F820210748FCF7C7F9BA
:1068D0006006040E681CC5B2082DE1DB10210248D9
:1068E000FCF7BFF970BD00000008014010B502467A
:1068F0000B460020002104E0545C0444E0B24C1C30
:10690000E1B29942F8DB10BD10B500F001F810BDFE
:1069100010B51B48006840B119480068401E18496E
:10692000086002D1012017490870002408E004EB38
:106930004401154A02EB810002F0B5F9601CC4B2B3
:10694000092CF4DB11480068401C10490860084617
:1069500000686FF00041884202D100200B490860B6
:1069600002F09BF90A480078401CC0B20849087040
:106970000A2803DB0020087002F08EF910BD000029
:1069800070000020740000208C3600207800002069
:106990007C00002010B51348006840F00100114948
:1069A000086008464068104908400E49486008469B
:1069B00000680E4908400B4908600846006820F44A
:1069C000802008600846406820F4FE0048604FF4CC
:1069D0001F008860FFF7D1FE4FF000600449086097
:1069E00010BD0000001002400000FFF8FFFFF6FE9F
:1069F00008ED00E010B50221480700F05BF858B13F
:106A00000221480700F044F800220221480700F064
:106A100062F81B48006880470421080700F04AF824
:106A200058B10421080700F033F8002204210807B8
:106A300000F051F81348006880470821C80600F0AC
:106A400039F858B10821C80600F022F800220821C0
:106A5000C80600F040F80C480068804710218806FE
:106A600000F028F858B11021880600F011F8002233
:106A70001021880600F02FF804480068804710BDF8
:106A80008000002084000020880000208C0000206E
:106A9000CA430282704721B1028842F0010202809B
:106AA00004E002884FF6FE731A40028070470146E8
:106AB000888C704730B50246002000230024158AD8
:106AC00005EA0103958905EA010413B10CB101201F
:106AD00000E0002030BD1AB183890B43838102E0BE
:106AE00083898B4383817047818670470187704714
:106AF00081877047A0F8401070470000002202888C
:106B00001D4B98420ED01D4B98420BD0B0F1804FD8
:106B100008D01B4B984205D01A4B984202D01A4B12
:106B2000984204D14FF68F731A404B881A43174B83
:106B3000984207D0164B984204D04FF6FF431A40B4
:106B4000CB881A4302808B8883850B8803850A4B88
:106B500098420BD0094B984208D00E4B984205D072
:106B60000D4B984202D00D4B984201D10B7A03860F
:106B70000123838270470000002C01400034014053
:106B80000004004000080040000C004000100040DD
:106B90000014004000400140004401400048014012
:106BA00010B500BF40F225510F4800F045F8C8B1BC
:106BB0000E480078C8280DDA0B4800F0F9F8C1B289
:106BC0000A480278401C8154401E0078401C074946
:106BD000087003E0044800F0EBF8C4B20020044958
:106BE000C870887010BD00000048004008370020C1
:106BF0007220002001F40072B2F5007F00D100BFC6
:106C0000CA430280704721B1828942F400528281D6
:106C100004E082894DF6FF731A4082817047024674
:106C20000020B1F5007F00D100BF13880B4201D0D6
:106C3000012000E00020704770B5024600240023C8
:106C400000250020A1F510666A3E00D100BFC1F307
:106C5000421501F01F03012606FA03F3012D02D1AC
:106C60009689334006E0022D02D1168A334001E0B6
:106C7000968A33400C12012606FA04F41688344032
:106C800013B10CB1012000E0002070BDF0B5034647
:106C90000024002600250020A1F510676A3F00D1DE
:106CA00000BF1846C1F3421401F01F06012707FA7E
:106CB00006F5012C01D10C3004E0022C01D110307A
:106CC00000E014301AB107682F43076002E007683C
:106CD000AF430760F0BD00002DE9F04786B00546E0
:106CE0000E460024A24600BFA1460027B08900B18D
:106CF00000BF2F462C8A4CF6FF700440F0880443F6
:106D00002C82AC894EF6F3100440B08831890843D8
:106D1000718908430443AC81AC8A4FF6FF400440BC
:106D2000B0890443AC8201A8FEF7B2FE1F48874237
:106D300002D1DDF810A001E0DDF80CA0A88910F464
:106D4000004F08D00AEBCA0000EB0A103168490076
:106D5000B0FBF1F807E00AEBCA0000EB0A1031685B
:106D60008900B0FBF1F86420B8FBF0F004012009C1
:106D7000642101FB1089A88910F4004F08D032204B
:106D800000EBC900B0FBF1F000F00700044308E09D
:106D9000322000EB09106421B0FBF1F000F00F008D
:106DA00004432C8106B0BDE8F087000000380140A4
:106DB00001468888C0F308007047C1F3080282804A
:106DC000704700BFFEE700002DE9F04106460F4680
:106DD000904631462D48FBF746FF044614B9FF2084
:106DE000BDE8F081102020704520607000250AE089
:106DF000C6EBC601264800EB4100C01C415DA81C43
:106E00002154681CC5B2032DF2DBC6EBC601204835
:106E100000EB410080796071002505E01D48415D6F
:106E2000A81D2154681CC5B2042DF7DB032F00DD1B
:106E30000327A772002506E018F8051005F10B00DE
:106E40002154681CC5B2BD42F6DB0E212046FBF77B
:106E50003DFCA0730E212046FFF748FD04F1AE046F
:106E600004F89F0C4FF01000A0764FF00100E07680
:106E70002077A0774FF00200E077A4F1AE0431460E
:106E80000248FBF7AFFDFE20AAE700000C2B002014
:106E9000D60300207F2000202DE9F04106460D4654
:106EA000174698463146284600F0E2FF10B9FF2009
:106EB000BDE8F08131463648FBF7D5FE04460CB9F3
:106EC000FF20F5E7102020700B206070A57084F87B
:106ED00003803048407820712E488078607100200F
:106EE000A071012D01D0022D09D12B480078E0714D
:106EF0002948007920722848407960721DE0062DEB
:106F000004D1FF20E0712072607216E0C6EBC6016A
:106F10002048363010F81100E071C6EBC6011D485C
:106F2000363000EB410000792072C6EBC6011948EB
:106F3000363000EB4100407960720120A072E772A8
:106F40000020207360730E212046FBF7BFFBA07367
:106F50000E212046FFF7CAFC04F1AE0404F89F0C92
:106F60004FF01000A0764FF00100E0764FF00300E4
:106F700020774FF00100A0774FF00200E077A4F1F6
:106F8000AE0431460248FBF72DFDFE2090E70000DD
:106F90000C2B0020A0030020920300207CB5304879
:106FA0004578304880792E49C8702E48C1792C48E0
:106FB00001712C48017A2A4841712A48407A2849AF
:106FC00088712848007BC8710846007A70B108466D
:106FD000007AFF280AD02348407B38B12148407B03
:106FE000FF2803D01F48407B087202E004201C49A0
:106FF0000872002406E0A01D1A49085C01A9085582
:10700000601CC4B2042CF6DB9DF8070000F0F00011
:107010008DF80700042101A8FBF776FE10490873DC
:1070200000204881284601F0C7F8FF212846FFF7D5
:1070300025FABB212846FCF703F902200823192270
:10704000114600900120FEF7E7FB00200649C872B8
:107050000873022088710021044841557CBD00005E
:1070600092030020DF35002080030020AE030020C3
:107070002DE9F04106460F4631467B48FBF7F3FD0C
:10708000044614B9FF20BDE8F08120202070302094
:107090006070002505E07548415DA81C2154681CFE
:1070A000C5B2042DF7DB002505E07148415DA81D40
:1070B0002154681CC5B2042DF7DB6E48008A00120B
:1070C000A0726C48007CE0726A48008A401C6949E2
:1070D0000882012F12D10320207302206073062042
:1070E000A0730020E073002505E0FF2105F11000EA
:1070F0002154681CC5B20D2DF7DB91E0022F12D18F
:1071000003202073022060730620A0730120E07327
:10711000002505E0FF2105F110002154681CC5B2CF
:107120000D2DF7DB7CE0BB2F13D104202073022050
:1071300060730720A073E67318202074002505E013
:10714000FF2105F111002154681CC5B20C2DF7DB9D
:1071500066E0CC2F21D10EB1102E01DD002092E788
:1071600004202073022060730820A073711E3F4822
:10717000163010F81100E0733C48163030F811005A
:1071800000122074002505E0FF2105F111002154B3
:10719000681CC5B20C2DF7DB42E0CF2F3ED110208A
:1071A000207030206070002504E0FF21A81C2154CD
:1071B000681CC5B2042DF8DB002504E0CC21A81D15
:1071C0002154681CC5B2042DF8DBCF20A072E072F8
:1071D000207360730E212046FBF778FAA0730E210E
:1071E0002046FFF783FB04F1AE0404F89F0C4FF038
:1071F0001000A0764FF00100E0764FF003002077FA
:107200004FF00100A0774FF00200E077A4F1AE0448
:1072100031461548FBF7E6FBFE2034E7002032E755
:107220001E212046FBF752FAA0771E212046FFF7C9
:107230005DFB04F1AE0404F88F0C4FF02000A07643
:107240004FF00100E0764FF0050020774FF001008D
:10725000A0774FF00200E077A4F1AE043146024877
:10726000FBF7C0FBFE200EE70C2B0020540400208F
:10727000A1030020800300202DE9F04F8DB04FF0D6
:10728000000AFE480078002804DDFC480078401E13
:10729000FA490870FA480088401CF949088008A992
:1072A000F848FEF77DFC0990099801287ED19DF8E9
:1072B000200010287ADB0020F14908809DF820008A
:1072C000801EC1B2EF48FFF711FB0C909DF8200023
:1072D000801EC1B2EB48FBF7F9F90B909DF8200036
